:10000000C04400206957000089ED000055570000EA
:1000100055570000555700005557000000000000DC
:100020000000000000000000000000001559000062
:100030005557000000000000E1580000555700002F
:10004000995A0000995A0000995A0000995A0000E4
:10005000995A0000995A0000995A0000995A0000D4
:10006000995A0000995A0000995A0000995A0000C4
:10007000995A0000995A0000995A0000995A0000B4
:10008000995A0000995A0000995A0000995A0000A4
:10009000995A0000995A0000995A0000995A000094
:1000A000995A0000995A0000995A0000995A000084
:1000B000995A0000995A0000995A0000995A000074
:1000C000995A0000995A0000995A0000995A000064
:1000D000995A0000995A0000995A0000995A000054
:1000E000995A0000995A0000995A0000995A000044
:1000F000995A0000995A0000995A0000995A000034
:1001000090F800F06DE9024520F007016FF0000C57
:1001100010F0070491F820F040F049804FF00004FF
:100120006FF00700D1E9002391F840F000F10800DA
:1001300082FA4CF2A4FA8CF283FA4CF3A2FA8CF312
:100140004BBBD1E9022382FA4CF200F10800A4FA79
:100150008CF283FA4CF3A2FA8CF3E3B9D1E90423CD
:1001600082FA4CF200F10800A4FA8CF283FA4CF304
:10017000A2FA8CF37BB9D1E9062301F1200182FABE
:100180004CF200F10800A4FA8CF283FA4CF3A2FAC4
:100190008CF3002BC6D0002A04BF04301A4612BAD2
:1001A000B2FA82F2FDE8024500EBD2007047D1E9D5
:1001B000002304F00305C4F100004FEAC50514F064
:1001C000040F91F840F00CFA05F562EA05021CBF35
:1001D00063EA050362464FF00004A9E7000000004F
:1001E00001F0FF01102A2BDB10F0070F08D010F8E8
:1001F000013B013A8B422DD010F0070F42B3F6D1EC
:10020000F0B441EA012141EA014122F007047FF004
:1002100000070023F0E80256083C85EA010586EA5B
:10022000010685FA47F5A3FA87F586FA47F6A5FA97
:1002300087F68EB9EED1F0BC01F0FF0102F00702A3
:1002400032B110F8013B013A83EA010313B1F8D14E
:100250000020704701387047002D06BF354603382F
:10026000073815F0010F07D1013015F4807F02BF68
:10027000013015F4C03F0130F0BC0138704700BFB9
:1002800081F0004102E000BF83F0004330B54FEA47
:1002900041044FEA430594EA050F08BF90EA020FB4
:1002A0001FBF54EA000C55EA020C7FEA645C7FEA47
:1002B000655C00F0E2804FEA5454D4EB5555B8BF6A
:1002C0006D420CDD2C4480EA020281EA030382EADB
:1002D000000083EA010180EA020281EA0303362D6D
:1002E00088BF30BD11F0004F4FEA01314FF4801C40
:1002F0004CEA113102D0404261EB410113F0004F52
:100300004FEA03334CEA133302D0524263EB430308
:1003100094EA050F00F0A780A4F10104D5F1200EA6
:100320000DDB02FA0EFC22FA05F2801841F1000101
:1003300003FA0EF2801843FA05F359410EE0A5F1D5
:1003400020050EF1200E012A03FA0EFC28BF4CF006
:10035000020C43FA05F3C01851EBE37101F00045BC
:1003600007D54FF0000EDCF1000C7EEB00006EEBC9
:100370000101B1F5801F1BD3B1F5001F0CD3490853
:100380005FEA30004FEA3C0C04F101044FEA4452AA
:1003900012F5800F80F09A80BCF1004F08BF5FEA31
:1003A000500C50F1000041EB045141EA050130BD11
:1003B0005FEA4C0C404141EB0101013C28BFB1F523
:1003C000801FE9D291F0000F04BF01460020B1FA6E
:1003D00081F308BF2033A3F10B03B3F120020CDA41
:1003E0000C3208DD02F1140CC2F10C0201FA0CF01F
:1003F00021FA02F10CE002F11402D8BFC2F1200C84
:1004000001FA02F120FA0CFCDCBF41EA0C01904039
:10041000E41AA2BF01EB0451294330BD6FEA040482
:100420001F3C1CDA0C340EDC04F11404C4F120026D
:1004300020FA04F001FA02F340EA030021FA04F37F
:1004400045EA030130BDC4F10C04C4F1200220FAD6
:1004500002F001FA04F340EA0300294630BD21FA14
:1004600004F0294630BD94F0000F83F4801306BFDA
:1004700081F480110134013D4EE77FEA645C18BFCE
:100480007FEA655C29D094EA050F08BF90EA020F65
:1004900005D054EA000C04BF1946104630BD91EA5D
:1004A000030F1EBF0021002030BD5FEA545C05D160
:1004B0004000494128BF41F0004130BD14F580049F
:1004C0003CBF01F5801130BD01F0004545F0FE4113
:1004D00041F470014FF0000030BD7FEA645C1ABF48
:1004E000194610467FEA655C1CBF0B46024650EA7F
:1004F000013406BF52EA033591EA030F41F40021AB
:1005000030BD00BF90F0000F04BF0021704730B530
:100510004FF4806404F132044FF000054FF0000105
:1005200050E700BF90F0000F04BF0021704730B5C6
:100530004FF4806404F1320410F0004548BF40429B
:100540004FF000013EE700BF42004FEAE2014FEAF0
:1005500031014FEA02701FBF12F07F4393F07F4FCB
:1005600081F06051704732F07F4208BF704793F0CE
:100570007F4F04BF41F40021704730B54FF46074E1
:1005800001F0004521F000411CE700BF50EA0102E4
:1005900008BF704730B54FF000050AE050EA01028D
:1005A00008BF704730B511F0004502D5404261EBFD
:1005B00041014FF4806404F132045FEA915C3FF43E
:1005C000D8AE4FF003025FEADC0C18BF03325FEADB
:1005D000DC0C18BF033202EBDC02C2F1200300FA8C
:1005E00003FC20FA02F001FA03FE40EA0E0021FAB1
:1005F00002F11444BDE600BF70B54FF0FF0C4CF49F
:10060000E06C1CEA11541DBF1CEA135594EA0C0F50
:1006100095EA0C0F00F0DEF82C4481EA030621EA8B
:100620004C5123EA4C5350EA013518BF52EA0335C6
:1006300041F4801143F4801338D0A0FB02CE4FF078
:100640000005E1FB02E506F00042E0FB03E54FF0A8
:100650000006E1FB03569CF0000F18BF4EF0010EA0
:10066000A4F1FF04B6F5007F64F5407404D25FEA9C
:100670004E0E6D4146EB060642EAC62141EA55514F
:100680004FEAC52040EA5E504FEACE2EB4F1FD0C91
:1006900088BFBCF5E06F1ED8BEF1004F08BF5FEA0F
:1006A000500E50F1000041EB045170BD06F00046C1
:1006B00046EA010140EA020081EA0301B4EB5C046E
:1006C000C2BFD4EB0C0541EA045170BD41F4801166
:1006D0004FF0000E013C00F3AB8014F1360FDEBF8B
:1006E000002001F0004170BDC4F10004203C35DA67
:1006F0000C341BDC04F11404C4F1200500FA05F3EA
:1007000020FA04F001FA05F240EA020001F000428A
:1007100021F0004110EBD37021FA04F642EB060100
:100720005EEA430E08BF20EAD37070BDC4F10C042A
:10073000C4F1200500FA04F320FA05F001FA04F2EE
:1007400040EA020001F0004110EBD37041F10001DA
:100750005EEA430E08BF20EAD37070BDC4F12005E5
:1007600000FA05F24EEA020E20FA04F301FA05F24D
:1007700043EA020321FA04F001F0004121FA04F2F5
:1007800020EA020000EBD3705EEA430E08BF20EAC5
:10079000D37070BD94F0000F0FD101F000464000FF
:1007A00041EB010111F4801F08BF013CF7D041EA81
:1007B000060195F0000F18BF704703F00046520085
:1007C00043EB030313F4801F08BF013DF7D043EA56
:1007D0000603704794EA0C0F0CEA135518BF95EA0C
:1007E0000C0F0CD050EA410618BF52EA4306D1D193
:1007F00081EA030101F000414FF0000070BD50EAB2
:10080000410606BF1046194652EA430619D094EA3B
:100810000C0F02D150EA013613D195EA0C0F05D125
:1008200052EA03361CBF104619460AD181EA030179
:1008300001F0004141F0FE4141F470014FF0000031
:1008400070BD41F0FE4141F4780170BD70B54FF0CC
:10085000FF0C4CF4E06C1CEA11541DBF1CEA13554C
:1008600094EA0C0F95EA0C0F00F0A7F8A4EB05042E
:1008700081EA030E52EA03354FEA013100F0888025
:100880004FEA03334FF0805545EA131343EA1263EE
:100890004FEA022245EA111545EA10654FEA0026A3
:1008A0000EF000419D4208BF964244F1FD0404F55C
:1008B000407402D25B084FEA3202B61A65EB0305B8
:1008C0005B084FEA32024FF480104FF4002CB6EB75
:1008D000020E75EB030E22BFB61A754640EA0C00F5
:1008E0005B084FEA3202B6EB020E75EB030E22BF35
:1008F000B61A754640EA5C005B084FEA3202B6EB76
:10090000020E75EB030E22BFB61A754640EA9C0034
:100910005B084FEA3202B6EB020E75EB030E22BF04
:10092000B61A754640EADC0055EA060E18D04FEAC2
:10093000051545EA16754FEA06164FEAC30343EA62
:1009400052734FEAC2025FEA1C1CC0D111F4801F2F
:100950000BD141EA00014FF000004FF0004CB6E728
:1009600011F4801F04BF01430020B4F1FD0C88BFC7
:10097000BCF5E06F3FF6AFAEB5EB030C04BFB6EBD2
:10098000020C5FEA500C50F1000041EB045170BDC5
:100990000EF0004E4EEA113114EB5C04C2BFD4EBF2
:1009A0000C0541EA045170BD41F480114FF0000E76
:1009B000013C90E645EA060E8DE60CEA135594EAF2
:1009C0000C0F08BF95EA0C0F3FF43BAF94EA0C0FF5
:1009D0000AD150EA01347FF434AF95EA0C0F7FF46A
:1009E00025AF104619462CE795EA0C0F06D152EABE
:1009F00003353FF4FDAE1046194622E750EA4106A2
:100A000018BF52EA43067FF4C5AE50EA41047FF4B2
:100A10000DAF52EA43057FF4EBAE12E780F00040E1
:100A200002E000BF81F0004142001FBF5FEA4103C6
:100A300092EA030F7FEA226C7FEA236C6AD04FEAC6
:100A40001262D2EB1363C1BFD2184140484041400B
:100A5000B8BF5B42192B88BF704710F0004F40F4BD
:100A6000000020F07F4018BF404211F0004F41F4D9
:100A7000000121F07F4118BF494292EA030F3FD0A5
:100A8000A2F1010241FA03FC10EB0C00C3F12003B8
:100A900001FA03F100F0004302D5494260EB400047
:100AA000B0F5000F13D3B0F1807F06D340084FEAB2
:100AB000310102F10102FE2A51D2B1F1004F40EBA7
:100AC000C25008BF20F0010040EA0300704749000F
:100AD00040EB0000013A28BFB0F5000FEDD2B0FAAC
:100AE00080FCACF1080CB2EB0C0200FA0CF0AABFCF
:100AF00000EBC25052421843BCBFD040184370476D
:100B000092F0000F81F4000106BF80F40000013272
:100B1000013BB5E74FEA41037FEA226C18BF7FEA49
:100B2000236C21D092EA030F04D092F0000F08BF8B
:100B30000846704790EA010F1CBF0020704712F072
:100B40007F4F04D1400028BF40F00040704712F1B1
:100B500000723CBF00F50000704700F0004343F016
:100B6000FE4040F4000070477FEA226216BF08464C
:100B70007FEA23630146420206BF5FEA412390EA0F
:100B8000010F40F4800070474FF0000304E000BF05
:100B900010F0004348BF40425FEA000C08BF7047B6
:100BA00043F0964301464FF000001CE050EA01027A
:100BB00008BF70474FF000030AE000BF50EA01028F
:100BC00008BF704711F0004302D5404261EB41017C
:100BD0005FEA010C02BF84460146002043F0B643A1
:100BE00008BFA3F18053A3F50003BCFA8CF2083AC6
:100BF000A3EBC25310DB01FA02FC634400FA02FCCF
:100C0000C2F12002BCF1004F20FA02F243EB0200D5
:100C100008BF20F00100704702F1200201FA02FC37
:100C2000C2F1200250EA4C0021FA02F243EB02002A
:100C300008BF20EADC7070474FF0FF0C1CEAD0526E
:100C40001EBF1CEAD15392EA0C0F93EA0C0F6FD02F
:100C50001A4480EA010C400218BF5FEA41211ED00D
:100C60004FF0006343EA501043EA5111A0FB0131F9
:100C70000CF00040B1F5000F3EBF490041EAD371CE
:100C80005B0040EA010062F17F02FD2A1DD8B3F14A
:100C9000004F40EBC25008BF20F00100704790F0B9
:100CA000000F0CF0004C08BF49024CEA502040EA0B
:100CB00051207F3AC2BFD2F1FF0340EAC2507047D1
:100CC00040F400004FF00003013A5DDC12F1190F0F
:100CD000DCBF00F000407047C2F10002410021FA81
:100CE00002F1C2F1200200FA02FC5FEA310040F199
:100CF000000053EA4C0308BF20EADC70704792F012
:100D0000000F00F0004C02BF400010F4000F013A49
:100D1000F9D040EA0C0093F0000F01F0004C02BF44
:100D2000490011F4000F013BF9D041EA0C018FE7B3
:100D30000CEAD15392EA0C0F18BF93EA0C0F0AD0B9
:100D400030F0004C18BF31F0004CD8D180EA0100DF
:100D500000F00040704790F0000F17BF90F0004F78
:100D6000084691F0000F91F0004F14D092EA0C0F5A
:100D700001D142020FD193EA0C0F03D14B0218BFED
:100D8000084608D180EA010000F0004040F0FE4033
:100D900040F40000704740F0FE4040F440007047CF
:100DA0004FF0FF0C1CEAD0521EBF1CEAD15392EA4E
:100DB0000C0F93EA0C0F69D0A2EB030280EA010C3E
:100DC00049024FEA402037D04FF0805343EA1111D7
:100DD00043EA10130CF000408B4238BF5B0042F135
:100DE0007D024FF4000C8B4224BF5B1A40EA0C00DA
:100DF000B3EB510F24BFA3EB510340EA5C00B3EB0C
:100E0000910F24BFA3EB910340EA9C00B3EBD10FF9
:100E100024BFA3EBD10340EADC001B0118BF5FEA4B
:100E20001C1CE0D1FD2A3FF650AF8B4240EBC25074
:100E300008BF20F0010070470CF0004C4CEA502035
:100E40007F32C2BFD2F1FF0340EAC250704740F484
:100E500000004FF00003013A37E792F0000F00F076
:100E6000004C02BF400010F4000F013AF9D040EAF4
:100E70000C0093F0000F01F0004C02BF490011F488
:100E8000000F013BF9D041EA0C0195E70CEAD15380
:100E900092EA0C0F08D142027FF47DAF93EA0C0F67
:100EA0007FF470AF084676E793EA0C0F04D14B024B
:100EB0003FF44CAF08466EE730F0004C18BF31F0FD
:100EC000004CCAD130F000427FF45CAF31F00043F7
:100ED0007FF43CAF5FE700BF4FF0FF3C06E000BF90
:100EE0004FF0010C02E000BF4FF0010C4DF804CDB3
:100EF0004FEA40024FEA41037FEA226C18BF7FEAC3
:100F0000236C11D001B052EA530C18BF90EA010FC4
:100F100058BFB2EB030088BFC81738BF6FEAE17053
:100F200018BF40F0010070477FEA226C02D15FEAEF
:100F3000402C05D17FEA236CE4D15FEA412CE1D05B
:100F40005DF8040B704700BF844608466146FFE722
:100F50000FB5FFF7C9FF002848BF10F1000F0FBD04
:100F60004DF808EDFFF7F4FF0CBF012000205DF8FD
:100F700008FB00BF4DF808EDFFF7EAFF34BF012082
:100F800000205DF808FB00BF4DF808EDFFF7E0FF1B
:100F900094BF012000205DF808FB00BF4DF808ED6C
:100FA000FFF7D2FF94BF012000205DF808FB00BFCF
:100FB0004DF808EDFFF7C8FF34BF012000205DF8B1
:100FC00008FB00BF4FEA4002B2F1FE4F0FD34FF0D3
:100FD0009E03B3EB12620DD94FEA002343F00043A6
:100FE00010F0004F23FA02F018BF404270474FF054
:100FF0000000704712F1610F01D1420205D110F0DB
:10100000004008BF6FF0004070474FF0000070478D
:1010100042000ED2B2F1FE4F0BD34FF09E03B3EB62
:10102000126209D44FEA002343F0004323FA02F08E
:1010300070474FF00000704712F1610F01D142027A
:1010400002D14FF0FF3070474FF00000704700BFF3
:1010500053B94AB9002908BF00281CBF4FF0FF311F
:101060004FF0FF3000F00CB8ADF1080C6DE904CE84
:1010700000F068F9DDF804E0DDE9022304B0704710
:10108000704700BF4FF0FF3C06E000BF4FF0010C7F
:1010900002E000BF4FF0010C4DF804CD4FEA410CC7
:1010A0007FEA6C5C4FEA430C18BF7FEA6C5C1BD094
:1010B00001B050EA410C0CBF52EA430C91EA030F15
:1010C00002BF90EA020F0020704710F1000F91EA72
:1010D000030F58BF994208BF90422CBFD8176FEA40
:1010E000E37040F0010070474FEA410C7FEA6C5C0E
:1010F00002D150EA013C07D14FEA430C7FEA6C5C15
:10110000D6D152EA033CD3D05DF8040B704700BF40
:101110008446104662468C461946634600E000BF8E
:1011200001B5FFF7B7FF002848BF10F1000F01BD60
:101130004DF808EDFFF7F4FF0CBF012000205DF82B
:1011400008FB00BF4DF808EDFFF7EAFF34BF0120B0
:1011500000205DF808FB00BF4DF808EDFFF7E0FF49
:1011600094BF012000205DF808FB00BF4DF808ED9A
:10117000FFF7CEFF94BF012000205DF808FB00BF01
:101180004DF808EDFFF7C4FF34BF012000205DF8E3
:1011900008FB00BF844641EA000313F003036DD14E
:1011A000403A41D351F8043B40F8043B51F8043B2A
:1011B00040F8043B51F8043B40F8043B51F8043B31
:1011C00040F8043B51F8043B40F8043B51F8043B21
:1011D00040F8043B51F8043B40F8043B51F8043B11
:1011E00040F8043B51F8043B40F8043B51F8043B01
:1011F00040F8043B51F8043B40F8043B51F8043BF1
:1012000040F8043B51F8043B40F8043B51F8043BE0
:1012100040F8043B51F8043B40F8043B51F8043BD0
:1012200040F8043B403ABDD2303211D351F8043B70
:1012300040F8043B51F8043B40F8043B51F8043BB0
:1012400040F8043B51F8043B40F8043B103AEDD21F
:101250000C3205D351F8043B40F8043B043AF9D270
:10126000043208D0D2071CBF11F8013B00F8013B43
:1012700001D30B8803806046704700BF082A13D350
:101280008B078DD010F003038AD0C3F10403D21A68
:10129000DB071CBF11F8013B00F8013B80D331F89C
:1012A000023B20F8023B7BE7043AD9D3013A11F81C
:1012B000013B00F8013BF9D20B7803704B78437087
:1012C0008B788370604670474FEA410C7FEA6C5C14
:1012D00002D150EA013C0AD14FEA430C7FEA6C5C30
:1012E00002D152EA033C02D14FF0000070474FF0A8
:1012F000010070474FEA410212F5001215D211D5D4
:101300006FF47873B3EB625212D94FEAC12343F002
:10131000004343EA505311F0004F23FA02F018BF84
:10132000404270474FF00000704750EA013005D14D
:1013300011F0004008BF6FF0004070474FF0000010
:10134000704700BF2DE9F04786468C460846089E48
:10135000154674461946002B40F0C2808542B2FA09
:1013600082F245D94AB1C2F1200300FA02FC2EFAFA
:1013700003F3954043EA0C0C94404FEA154EA8B293
:10138000BCFBFEF8230C0EFB18CC08FB00F943EA6B
:101390000C43994528D9EB1808F1FF3704D2994539
:1013A00002D9A8F102072B44A3EB0903A4B2B3FBB3
:1013B000FEFC0EFB1C330CFB00F044EA0344A0428D
:1013C00014D92C190CF1FF3304D2A04202D9ACF18C
:1013D00002032C44241A43EA07401EB1D4400023E0
:1013E00034607360BDE8F0874746DDE76346F1E7A8
:1013F00092BB431B01214FEA154EAFB2B3FBFEFC7B
:10140000200C0EFB1C330CFB07F840EA0343984505
:1014100062D9EB180CF1FF3004D2984502D9ACF137
:1014200002002B44A3EB0803A4B2B3FBFEFC0EFBAB
:101430001C330CFB07F744EA0344A7424ED92C198E
:101440000CF1FF3304D2A74202D9ACF102032C44C1
:10145000E41B43EA0040C0E7C2F1200320FA03F195
:10146000954090402EFA03F303434FEA154EAFB276
:10147000B1FBFEFC0EFB1C10190C0CFB07F841EA3B
:101480000041884504FA02F422D969180CF1FF30B2
:1014900004D2884502D9ACF102002944A1EB08012D
:1014A0009BB2B1FBFEFC0EFB1C110CFB07F743EAE1
:1014B00001439F420ED9EB180CF1FF3104D29F4239
:1014C00002D9ACF102012B44DB1B41EA004192E757
:1014D0006046E3E76146F7E76046A3E76346B7E7A0
:1014E000834206D916B9002108467BE7C6E900E029
:1014F000F9E7B3FA83F78FB9834201D3724508D86D
:10150000BEEB020460EB030301209C461EB90021E0
:1015100068E73846FAE7C6E9004CF8E7C7F1200C5F
:10152000BB4022FA0CF41C432EFA0CF120FA0CF307
:10153000B84001434FEA14490EFA07F5B3FBF9F836
:101540001FFA84FE09FB18300B0C08FB0EFA43EA65
:1015500000439A4502FA07F240D9E31808F1FF3038
:1015600004D29A4502D9A8F102002344A3EB0A034E
:1015700089B2B3FBF9F809FB183308FB0EFE41EA08
:1015800003418E452CD9611808F1FF3304D28E45F2
:1015900002D9A8F10203214443EA0040A0FB0298CB
:1015A000A1EB0E014145CE46434602D306D14D453F
:1015B00004D2B9EB020E68EB04030138002EA6D06A
:1015C000B5EB0E0261EB030101FA0CFC22FA07F302
:1015D0004CEA0303F940C6E9003198E74046C5E705
:1015E0004346D9E7000000002DE9F04F016C9FB0A1
:1015F00016461F46CDE904672B9D039049B1426C06
:101600004A600123934004468B600AF03DFF0023AB
:101610002364B7F10009B4BF012300232B60764B8C
:10162000BCBF29F00049CDF8149033EA090300F05B
:10163000AA80DDE904340022184621460023CDE9C2
:101640000801FFF775FD804668B12A9A01231360EF
:101650002C9B13B12C9A694B1360694B0A930A981F
:101660001FB0BDE8F08F1CAB01931DAB0093039836
:10167000DDE908230BF03CFA5FEA1955824640F099
:101680009880DDE91C85454405F23243202B40F368
:101690008383C3F1400309FA03F905F2124326FAE2
:1016A00003F349EA0300FEF72DFF0123013DA1F1F9
:1016B000F8711193534B0022FEF7E6FD48A3D3E9DE
:1016C0000023FEF799FF48A3D3E90023FEF7DEFDD0
:1016D000064628460F46FEF725FF45A3D3E900231B
:1016E000FEF78AFF02460B4630463946FEF7CEFD2E
:1016F00006460F46FFF7FEFD0022834600233046D4
:101700003946FFF71FFD002840F01A83A8EB0508B3
:10171000BBF1160F08F1FF3400F28B813A4D05EB57
:10172000CB05D5E90023DDE90801FFF70BFD002813
:1017300070D00023002C0BF1FF3B1093C0F27E8190
:1017400000230B93BBF1000F6ADA0B9BA3EB0B0397
:101750000B93CBF10003CDE90EB3289B092B4FF07F
:10176000000B65D8052B40F31C83043B2893002510
:10177000289B023B032B00F22386DFE813F0600472
:101780005D04540438042A9AC9F3130942F20F7312
:1017900059EA060913601CD12C9B002B00F02B8604
:1017A0001A4B0A9308332C9A0A9813601FB0BDE8AD
:1017B000F08FDDE90812C2F31303084643F07F51AE
:1017C000CDF84480A5F2FF35DDF8708041F440117A
:1017D00070E72C9B002B40F0E7830D4B0A933EE70C
:1017E00061436F63A787D23FB3C8608B288AC63F27
:1017F000FB799F501344D33F0000F07FA5FF00000A
:10180000A4FF00000000F83F10FB0000C8FF00002C
:10181000D4FF0000B8F1000F40F3608410900B90EB
:1018200000230F93289BCDF838B0092B5C4499D93D
:101830000023CDE9283301254FF0FF330C950693A3
:10184000039B00215964069B189303980AF0F6FD48
:101850000A90002800F0BD85039B0A9A1A64069B33
:101860000E2B00F21581002D00F012810E9A002A35
:1018700040F33B84B24D02F00F0305EBC303D3E901
:10188000008913461511DA0540F1FA83AD4BDDE905
:101890000801D3E90823FEF7D9FFCDE9120105F0CD
:1018A0000F0503277DB1A74EEB0708D540464946F3
:1018B000D6E90023FEF7A0FE0137804689466D1069
:1018C00006F10806F0D142464B46DDE91201FEF76B
:1018D000BDFF80468946109B43B19B4B002240468A
:1018E0004946FFF72FFC002840F0F1843846FEF708
:1018F00019FE42464B46FEF77FFE944B0022FEF750
:10190000C5FC069B0646A1F15077002B00F0A9808C
:101910000E9B1993069B12930A9B894D494640469C
:10192000CDE914675E1CFFF7E5FC129905EBC103D6
:1019300053E902120746CDE91612FEF7F3FD0246FF
:101940000B4640464946FEF79FFC89460C993037C6
:10195000DDE916238046FFB2002900F053847C495C
:101960000020FEF773FFDDE91423FEF78DFC0A9DCE
:1019700002460B46CDE914232F7042464B46FFF733
:10198000FFFB002840F09784CDE91AB4CDF858A0A9
:10199000129DDDE914AB00272AE00137AF4280F247
:1019A000DE846C4B504659460022FEF725FE694BFB
:1019B000002282468B4640464946FEF71DFE894678
:1019C0008046FFF797FC0446FEF7ACFD02460B4647
:1019D00040464946FEF758FC303406F8014B524663
:1019E0005B4680468946FFF7ADFB002840F0B48493
:1019F00042464B4654490020FEF746FC52465B46A1
:101A0000FFF7A0FB0028C8D0199BDDF858A00A9A60
:101A1000374603F1010802E0974200F07C843E461D
:101A200017F8013D392BF7D00133DBB23B70454647
:101A300075E10123002C1093BFF682AEC8F10103BB
:101A40000B9300247EE63846FEF76CFD42464B467B
:101A5000FEF7D2FD3D4B0022FEF718FC0646A1F131
:101A600050773D4B404649460022FEF70DFC32467A
:101A70003B4680468946FFF783FB002840F05A84A6
:101A800040464946324607F10043FFF75BFB28BB5F
:101A90001D9B002BC0F292800E9A0E2A00F38E80BE
:101AA000274D0E9B05EBC305D5E90034CDE9043481
:101AB000299B002B19DA069B002B16DC0ED1264B36
:101AC0000022DDE90401FEF797FD02460B46DDE941
:101AD0000801FFF741FB002800F02C844FF00009BB
:101AE0000A9E4F46299BDD4325E2DDE90445DDE9F9
:101AF000088922462B4640464946FEF7A7FEFFF7D7
:101B0000F9FB0646FEF70EFD22462B46FEF774FD56
:101B10000A9F0B46024649464046FEF7B5FB06F1D2
:101B2000300307F8013B069B012B00F012830125CF
:101B3000CDF818A09946DDE904ABA8462CE000BF1B
:101B400010FB0000E8FA00000000F03F00001C401D
:101B50000000E03F000024400000144052465B4675
:101B600020462946FEF772FEFFF7C4FB0646FEF745
:101B7000D9FC52465B46FEF73FFD08F101080B46D3
:101B8000024629462046FEF77FFB06F13003C84592
:101B900007F8013B00F0DB82B94B0022FEF72CFD79
:101BA0000022002304460D46FFF7C2FA0028D5D0D4
:101BB0000E9DDDF818A001353E46B0E00C9A002AD3
:101BC00040F0D28000230F9D0B9E0C931F4656B110
:101BD000002C08DDA6420B9A3346A8BF2346D21A32
:101BE0000B92F61AE41A0F9B53B10C9B13B1002D04
:101BF00040F0E88251460F9A03980AF0D5FD8246DC
:101C0000039801210AF0ECFC8146BBF1000F40F083
:101C1000B681289B012B40F3CC810120204410F099
:101C20001F0000F09A80C0F12003042B40F3DA81FA
:101C30000B9BC0F11C0003440B93064404440B9B14
:101C4000002B05DD514603981A460AF007FE82462E
:101C5000002C05DD4946039822460AF0FFFD814627
:101C6000109B002B40F07081069B002B40F34881B5
:101C70000C9B002B40F0A4800E9D0135DDF82880E0
:101C8000069CDDF80CB0012607E0514600230A222D
:101C900058460AF003FC013682464946504609F090
:101CA00023FEA64200F1300308F8013BEDDB069A63
:101CB000002AC8BF16460A9AD8BF012602EB060BB7
:101CC000002451460122039804930AF0C7FD4946B7
:101CD00082460AF03BFE002840F3E3810A9A02E0C4
:101CE0005A4500F0E9815E460BF1FF3B16F8013CD6
:101CF000392BF5D001338BF80030DDF80C804946E4
:101D000040460AF0C1FB57B12CB1BC4203D021467A
:101D100040460AF0B9FB039839460AF0B5FB039830
:101D200051460AF0B1FB002333702A9B1D602C9BA7
:101D3000002B3FF494AC0A981E601FB0BDE8F08FF2
:101D40005846FEF7EFFB32463B46FFF7F1F9002815
:101D50007FF4DCAC0BF1FF3BD8E41C230B9A1A4454
:101D60000B921E441C446AE7289A012A40F3A98179
:101D7000069A0F9B551EAB42C0F26B81002AA3EB63
:101D8000050580F2DD820B9B069A9E1A03980121BD
:101D90000AF026FC07461AE7C3F1200306FA03F00F
:101DA00081E40125E4E43946002303980A220AF07D
:101DB00075FB189B002B074640F3EF820E950693A8
:101DC000002E00F33F81BBF1000F40F0DF81B846E9
:101DD0000A9E069C731E1C44049B0C9403F0010392
:101DE000039C0F934946504609F07EFD39468346D1
:101DF00050460AF0ABFD42464946054620460AF0E9
:101E0000C5FDC26801460BF13003002A3AD10890A3
:101E100050460B930AF09AFD0899069020460AF066
:101E200033FB069A0B9B002A5AD1289A1AB90F9AAB
:101E3000002A00F09A82002D45DB0C9AB346B2428C
:101E40000BF8013B00F0B981514600230A222046DD
:101E50000AF024FB4745824639464FF000034FF015
:101E60000A02204636D00AF019FB414607460023F5
:101E70000A2220460AF012FB5E468046B2E700BF07
:101E800000002440039806930AF0FEFA002D069BFA
:101E900006DB049A289902F001020D432A432AD155
:101EA00051460122039804930AF0D8FC4946824621
:101EB0000AF04CFD0028049B40F3E880392B00F029
:101EC0002F820BF131030E9D06F8013B3C46013594
:101ED000474612E70AF0E2FA5E460746804681E787
:101EE000002DC0F27D8228990D430F990D4300F01B
:101EF0007782002AA1DD392B00F012820133E2E75C
:101F0000289B022B7FF7B4AE069B002B40F01D816F
:101F10004946052203980AF0C1FA01468146504617
:101F20000AF014FD002840F310810A9E0E9D312313
:101F300006F8013B01350398494601350AF0A4FA39
:101F4000002F7FF4E8AEEAE6494650460AF0FEFC70
:101F50000028BFF689AE5146002303980A220AF0F2
:101F60009DFA0E9B5D1E0C9B8246002B7FF41BAFDF
:101F7000189B002B40F3FF810E9D06937EE60146E1
:101F80005A4603980AF010FC289B012B81466CDD11
:101F90004FF0000BD9F8103009EB830318690AF0F1
:101FA000CDFAC0F1200039E6924B0A930333FFF7D4
:101FB000FABB049B002B7FF430AEDDE90412C2F3C0
:101FC0001303002B7FF429AE8B4B134023B10B9BE3
:101FD00001330B9301340123BBF1000F40F0AE81BC
:101FE0009B461AE63FF42BAEC0F13C03B6E6012354
:101FF0000C93299B0E9A134418930133012B1E4610
:102000000693B8BF0126172E40F3D5810122042381
:102010005B0003F11400B042114602F10102F7D94E
:10202000039B596411E401230C93299B002B33DD9E
:10203000189306931E46E6E700230C93D9E7002386
:102040000C93F2E73946039832460AF007FC07463C
:10205000B9E60F9B069A0F95EB1A9B440B9B1E4605
:10206000134414440B93002590E6049B002B8FD15E
:10207000DDE90401C1F313030A46002B88D1A3E76D
:10208000DDE908230227CDE912230BE47FF41BAF1F
:10209000DA077FF518AF11E7012329930693FFF7BD
:1020A000CFBB03D1049BDB073FF518AE5E461BF8A0
:1020B000013D302BFAD020E60A9A31230135137006
:1020C0001BE6119A002A00F0F98003F233430B9AC1
:1020D0000F9D16461A441C440B9257E6C8F10103A3
:1020E00004460B931090FFF79BBB00F0EB800E9B18
:1020F000424D5E4206F00F0305EBC303D3E9002314
:10210000DDE90801FEF778FA3511CDE9120100F09A
:102110004D813B4E0023022780468946E80709D5BA
:10212000D6E9002340464946FEF766FA0137804665
:10213000894601236D1006F10806EFD1002B7FF4CC
:10214000CAABDDE91289FFF7C6BB0A9ECAE4DDF817
:1021500018A00E9D02460B46FEF798F802460B4665
:10216000CDE906230135DDE90423A846FFF708F889
:1021700040B9DDE90423DDE90601FEF7D9FF18B116
:10218000F10701D50A9A4AE43E46C8E57968039802
:102190000AF054F90546002800F026813B69023315
:1021A0009A0007F10C010C30FEF7F4FF0398294662
:1021B00001220AF053FB80460AE60E9D3C4601359B
:1021C00047467EE5DDF80C8039462A4640460AF04F
:1021D000EBFA52460146074640460AF02FFA5146AE
:1021E000824640460AF050F90F9B5B1B0F933FF469
:1021F00007ADFFE4D4FF00000000F07F10FB0000FB
:10220000E8FA0000DDE91401FEF7F6F90A9B1F70F9
:10221000129B012BCDE90C0100F0C680129F0A9B96
:10222000CDF844B01F447C4B002240464946FEF79F
:10223000E3F989468046FFF75DF88346FEF772F9B9
:102240000BF1300B02460B4640464946FEF71CF8A0
:1022500006F801BBB74280468946E4D1DDF844B0B8
:102260006E4B0022DDE90C01FEF710F802460B462A
:1022700040464946FEF784FF002867D1DDE90C237C
:1022800066490020FEF700F802460B4640464946E4
:10229000FEF758FF48B91D9B002BFFF693AC0E9B31
:1022A0000E2B3FF78FACFFF7FCBB3E46013F16F805
:1022B000013C302BF9D0199D013530E51C9BC3F151
:1022C000360304E7DDE908890227FFF704BB069B14
:1022D000002B3FF4B8AB189B002B7FF7D9AB0E9ABD
:1022E0001293013A4C4B1992404600224946FEF7A0
:1022F00083F980468946781CFEF714F942464B461E
:10230000FEF77AF9464B0022FDF7C0FF0646A1F121
:102310005077FFF701BB08F101083123FFF786BBB7
:102320000E9D0A9AB34639233C460BF8013B013512
:102330004746D8E44FF000094F46F6E59B4629E6AC
:102340000B9B1E46134414440B931FE5199B0A9ADA
:1023500003F10108FFF763BBDDF858A0ABE7DDE947
:102360001AB4DDF858A0FFF793BB392BD8D0002D55
:102370003FF7A7ADA7E5289B022B0ADC189B069325
:1023800049460E9D09F0B0FA0A9A00F13003137025
:102390008DE4189B06930E95B6E5289B022BF8DC7E
:1023A000189B0E9506930BE5374659E7DDE9128930
:1023B0000227FFF790BA039B00215964FFF745BA43
:1023C000039B00255D64294618460AF037F80A90F9
:1023D000A8B9144B144800224FF4D5710BF06EFDD0
:1023E000002A7FF770AD5BE50E4B0F482A4640F29E
:1023F000EA210BF063FD0D4B0A93FFF730B9039B05
:102400000A9A1A644FF0FF330122299518930C920F
:102410000693FFF73DBB00BF000024400000E03FF3
:1024200000001C40D8FF0000ECFF0000C8FF0000C7
:10243000F8B50C46FEF7A8FB0646E08BFEF7A4FBBA
:102440004FF05C5105463046FEF7F6FB4FF0645105
:1024500007462846FEF7F0FB01463846FEF7E2FA4B
:102460004FF0625107463046FEF7E6FB4FF06A51E7
:1024700006462846FEF7E0FB01463046FEF7D2FA54
:102480000546B4F92000FEF783FB01462846FEF717
:10249000D3FB054694F92200FEF77AFB4FF0834107
:1024A000FEF7CAFB394606463846FEF7C5FB01462D
:1024B0003046FEF7C1FB01462846FEF7B5FA024951
:1024C000A063FEF76DFCF8BD0000A0452DE9F041CA
:1024D0000C4680464FF07C51A06BFEF7ADFB69497E
:1024E000FEF7A0FA054694F92800FEF751FB2946AD
:1024F000FEF7A2FB2946FEF79FFB4FF06251FEF765
:102500009BFB0646B4F92600FEF742FB2946FEF780
:1025100093FB01463046FEF787FA4FF05851FEF71D
:102520008BFB4FF06051FEF787FB4FF07E51FEF7BB
:102530007BFA0646A08CFEF727FB3146FEF77CFBB4
:102540000646FEF73FFD002800F0998094F92E0022
:10255000FEF71EFB4FF05C51FEF76EFB2946074667
:102560002846FEF769FB01463846FEF765FB07463D
:10257000B4F92C00FEF70CFB2946FEF75DFB014683
:10258000FEF752FA3946FEF74FFA4FF07A51FEF74E
:1025900053FB07464046FEF7F7FA01464FF09340DB
:1025A000FEF740FA0546B4F92A00FEF7F1FA4FF0BB
:1025B0008F41FEF741FB3946FEF736FA4FF0665180
:1025C000FEF73AFB01462846FEF72CFA2E49FEF7A5
:1025D00033FB3146FEF7E4FB4FF06E510546FEF744
:1025E0002BFB0646B4F93200FEF7D2FA2946FEF775
:1025F00023FB2946FEF720FB4FF04051FEF71CFB62
:102600000746B4F93000FEF7C3FA4FF06051FEF709
:1026100013FB2946FEF710FB01463846FEF704FA85
:10262000074694F83400FEF7B3FA4FF05C51FEF71A
:1026300003FB314680463046FEF7FEFA3146FEF790
:10264000FBFA01464046FEF7F7FA01463846FEF728
:10265000EBF9064694F92F00FEF79AFA4FF08641FF
:10266000FEF7EAFA01463046FEF7DEF94FF0765102
:10267000FEF7E2FA2946FEF7D7F9BDE8F08100201F
:10268000FBE700BF00007A470050C3452DE9F04149
:102690000C4607464349A06BFEF782FB054694F9BA
:1026A0001500FEF775FA4FF06251FEF7C5FA29469C
:1026B000FEF7C2FA4FF07E51FEF7B6F9064694F9DE
:1026C0001600FEF765FA4FF05651FEF7B5FA2946A7
:1026D000FEF7B2FA2946FEF7AFFA01463046FEF79A
:1026E000A3F90646608AFEF74FFA4FF05A51FEF7FB
:1026F000A3FA01463046FEF79FFA06463846FEF733
:1027000043FA074694F91400FEF742FA4FF07C5161
:10271000FEF792FA2946FEF78FFA8046208AFEF7E6
:1027200033FA4FF08341FEF787FA01464046FEF741
:102730007BF901463846FEF775F901463046FEF74B
:102740007BFA064694F91800FEF722FA4FF054512E
:10275000FEF772FA2946FEF76FFA0546E07DFEF7AE
:1027600013FA4FF06251FEF767FA01462846FEF76A
:102770005BF93146FEF760FA3146FEF75DFA314605
:10278000FEF752F908490446FEF712FC30B9002161
:102790002046FEF7EFFB10B1002400E0024C20467B
:1027A000BDE8F0810000A0450000C84270B50646B3
:1027B000B1F91A000C46FEF7EBF94FF06051FEF745
:1027C0003BFA3749FEF738FA3649FEF72DF9B6F5E8
:1027D000C87F0546304628BF4FF4C870FEF7D4F9CD
:1027E00001462846FEF728FA4FF07E51FEF71CF905
:1027F000054694F91900FEF7CBF94FF07651FEF734
:102800001BFA2949FEF710F901462846FEF714FA8B
:10281000054694F91C00FEF7BBF94FF06A51FEF72C
:102820000BFA064694F90E00FEF7B2F9014630465F
:10283000FEF702FA01462846FEF7F6F8054694F838
:102840003C00FEF7A1F94FF08141FEF7EDF801469B
:102850004FF08140FEF7A4FA01462846FEF7ECF956
:10286000054694F93D00FEF793F91049FEF7E4F9A7
:102870004FF07E51FEF7D8F801464FF07E50FEF73C
:102880008FFA01462846FEF7D7F90949FEF7CAF83C
:102890000849FEF7D1F9FEF7BBFBC0B270BD00BF1F
:1028A0006F12033A75021A3B000044426F12033B59
:1028B0000000C8419A9959402DE9F041344C264610
:1028C00084460F4690460FCEA0B06D460FC50FCE82
:1028D0000FC50FCE0FC596E80F00403485E80F00F6
:1028E0000FCC10AD0FC50FCC0FC50FCC0FC594E8A2
:1028F0000F0085E80F006046FEF746F94FF088416B
:10290000FEF790F804464046FEF742F92149FEF7EB
:1029100093F92149FEF788F820AB03EB87060546BB
:102920001E4956F8800CFEF73BFA4FF07E51FEF739
:102930007BF801462846FEF77FF901462046FEF760
:102940002FFA4FF07E51FEF76FF81449044656F8FF
:10295000400CFEF725FA4FF07E51FEF765F810495E
:10296000FEF76AF905460120B840FEF70DF9014669
:102970002846FEF761F901462046FEF75DF901465B
:102980004FF07E50FEF70CFA20B0BDE8F08100BF9A
:1029900050FA00000000A0400080A7440000C84298
:1029A000BD370634F0B54C4B87B0064618681B7926
:1029B00002908DF80C300DF1070000230D460493B2
:1029C0008DF814300BF045FF044628B10EB94FF0D6
:1029D000FF34204607B0F0BD29460BF0FDFE074648
:1029E0000446002EF3D00028F3D12B46052204A97B
:1029F00071200BF0FEFD85F84D7004460028E8D1EB
:102A00002A460721F01C0BF046FD04460028E0D1C1
:102A10000521701C0BF03FFD04460028D9D1B01CE5
:102A20000BF039FD04460028D3D130460BF033FDBE
:102A300004460028CDD10821301D0BF02CFD0446A2
:102A40000028C6D1F3789DF8142071789B0003F01C
:102A50001C0322F01C021A439DF8133003F01F03DD
:102A600043EA4113B178890001F01C0123F01C03F3
:102A70000B438DF8133031789DF8113001F00701C8
:102A800023F007030B4331798DF81130082908BF73
:102A9000002102F01F0343EA41138DF814309DF822
:102AA000103014BF0020012003F07F0343EAC0135D
:102AB0008DF8103005222B4604A902A80BF04FFD1B
:102AC00004469DF80700002883D0002C81D12946B8
:102AD0000BF082FE04467CE7A001010037B51F4BD6
:102AE0000546D3F88000B3F884300090ADF8043088
:102AF0000C4611B9002003B030BD0521601C0BF05D
:102B0000CAFC0028F6D1A01C0BF0C5FC0028F1D1AE
:102B100020460BF0C0FC0028ECD1637808336B44EE
:102B2000022D13F8082CA37803F108036B4413F863
:102B3000083C1344227802F108026A4412F8080C97
:102B4000184440F2AB7303FB00F00BBF00F5865056
:102B500000F5A55040180D30CDE700BF50FA000039
:102B60002DE9F04FB5B01C4622AB009207460D464A
:102B700018464822002106F0E7FF28AB0A900B9385
:102B800020462EAB0C930BF078FC064628B14FF094
:102B9000FF36304635B0BDE8F08F002DF7D0012F5D
:102BA00040F0D180159001460D2216A806F0CCFF0A
:102BB0004FF005082346112215A91D200BF019FD21
:102BC0009DF85520AA709DF8562001929DF8572037
:102BD00002929DF8582003929DF8592004929DF886
:102BE0005A209DF854C005929DF85C2006929DF8ED
:102BF0005D2007920CF080039DF861202B700CF093
:102C00000F0C85F801C008929DF863200992A26814
:102C10009DF862B09DF864909DF85BA0012A0CBFFE
:102C200009F030020BF0300213432B701B067BD5EA
:102C3000002840F0978123460122E91C0CF15A003C
:102C40000BF0D7FC002840F08D8168785030234687
:102C50000122291DC0B20BF0CCFC002840F082817B
:102C60006878643023460122691DC0B20BF0C1FCB4
:102C7000002840F07781059B4FEA1A1040EA0310C4
:102C8000049B214640EA0330FFF7D2FB039BA86078
:102C90001809029B40EA0310019B214640EA0330D9
:102CA000FFF714FCDDE90623E860214643EA022031
:102CB000FFF7ECFC2861A368012B29D1099B4FEA9F
:102CC000991040EA8300A0F5007000EB400409F081
:102CD0000F094FF4802020FA09F0FDF755FFA349B2
:102CE000FDF7AAFF804604F58050FDF751FF01462D
:102CF0004046FEF755F8686195F90030002B01DB7E
:102D000000270226009B002B3FF441AF1F7040E7D5
:102D1000089B94F93E204FEA9B100BF00F0140EA0C
:102D20008300FFF7C9FDE6E7002840F01B81A36C94
:102D3000616842F2107008F1FF38984718F0FF08F8
:102D40007FF438AFD8E7023F012F00F20881014637
:102D500015902F2216A806F0F7FE1A2231460EA86B
:102D60000D9606F0F1FE2346332215A91D200BF027
:102D700040FC0028C4D123461E220DA950200BF090
:102D800038FC0028BCD10DF1280915AECB46804691
:102D90005BF8047B7378BB70F378B278B0793178E4
:102DA00096F810A01B0143EA0233327943EA12136A
:102DB00001937379327A000140EA0330F37940EAF3
:102DC0001310737A43EA0223F27B02930492737B1B
:102DD000A2680393B37B012A01F0800C01F00F017C
:102DE00018BF03F0300ECDE9053201F1D00308BF62
:102DF0000AF0300E79700DEB03014CEA0E0C87F8E7
:102E000000C011F89CCC87F804C011F892CC11F8DE
:102E1000881C87F803C079712146FFF709FB21461A
:102E2000B8600198FFF752FB2146F8600298FFF75F
:102E30002DFC069A059B3861012A5FD1049A4FEA5E
:102E40009A1343EA8203A3F5007303EB4303019350
:102E50000AF00F004FF4802323FA00F0FDF794FEF0
:102E60004249FDF7E9FE019B824603F58050FDF7DC
:102E70008FFE01465046FDF793FF08F10108B8F1B7
:102E8000030F786106F1110682D100274A463B46BE
:102E900052F8041B91F9001001330029B8BF013723
:102EA000DBB2B8BFFFB2032BF2D14A46002303F1D5
:102EB000010C164604321146E646306851F8044BC0
:102EC00090F900B090F802A0A37894F90080BBF1CB
:102ED000000F21DAB8F1000F21DAA3EB0A039BB24D
:102EE00003F102081FFA88F8B8F1010F02D91BB2EA
:102EF000022B14DD346041F8040C10E0980903F053
:102F00000F01039B94F93E2040EA8300FFF7D4FCB5
:102F1000B3E74FF0020ED0E7B8F1000FEADBBEF1E5
:102F2000010FF6D0BCF1020F4FF00103BFD14FF0FB
:102F3000000C4FF0180E59F8046B0FCE0EFB0C541A
:102F40000FC496E803000CF1010CBCF1030F84E8F8
:102F50000300F0D1B7FA87F676097600D2E6074685
:102F60000126CFE606460027CCE600BF00247449C0
:102F70002DE9F04F93B047F2701307469046ADF835
:102F800014300E4629B94FF0FF34204613B0BDE887
:102F9000F08F114600200BF01FFC04460028F4D1EE
:102FA0008A4A6E23D2F88600D2F88A108DF8133040
:102FB00006AB03C3B2F88E201A8009AB03C31A8094
:102FC0000CAB03C31A800FAB03C3022F1A800DF1A1
:102FD000180A0DF1240B00F09A80032F61D0012F05
:102FE00001D00124D1E75A2370888DF8183041466A
:102FF000FFF7DCFB64238DF83030B3888DF82400B4
:10300000B3F57C6F4BD23F2B04F1010244D803EBA4
:103010008413DBB28DF83C30002543463A465946CE
:1030200050460BF09CFA04460028AED143463A467F
:103030000FA90CA80BF093FA04460028A5D143462B
:1030400002220FA970200BF0D4FA044600289CD16C
:103050003378012B40F0B680D8F80820012A08BF49
:1030600002239DF83C2022F0080242EAC4049DF8A5
:103070003D208DF83C4022F00F02154325F030052D
:1030800045EA0315022243460FA905A88DF83D50D5
:103090000BF065FA044678E79B081446B3E7FF2374
:1030A000B8E7F568002D3FF46EAFD6F80890B9F197
:1030B000000F3FF468AF377CE3B29F4201D83D4632
:1030C000ABE703F15A0239F814000AF8042041462C
:1030D0000193FFF76BFB019B0BF804000CAA643310
:1030E000135535F81430B3F57C6F0ED200223F2B08
:1030F00002F1010106D803EB8213DBB20FAA1355CC
:103100000134D9E79B080A46F1E7FF23F6E7F268A6
:10311000002A3FF438AFB3680193002B3FF433AF7C
:10312000758A377C002D08BF03244FF000095FFA31
:1031300089F39F4218D840F282739D4233D84FF4EE
:103140007A735D4340F2DD13B5FBF3F50023ADB2B6
:103150003F2D03F1010223D805EB8315EDB28DF865
:10316000125014B3032410E703F15A010293019B98
:103170000AF8091033F8190003924146FFF716FBCD
:10318000029B0BF809000CAA643302F80930039A79
:103190000FA932F8193001F8093009F10109C6E721
:1031A000AD081346D4E7FF25D9E7434601220DF1C8
:1031B00012010DF113000BF0D2F9044600287FF440
:1031C000E4AE7CE7034601244BE700BF50FA000061
:1031D00038B52A4B1B781446002B4DD010293BD014
:1031E00006D80D290DD00E2923D06FF0150038BD5B
:1031F0001E29FAD1224B5869FDF7E4FE2060002019
:1032000014E01F4D1F49A868FDF7CAFDFDF7DAFE5F
:10321000642320605843FDF7BBFC0146A868FDF716
:1032200001FC1949FDF708FDFDF7CCFE60600020A8
:10323000DDE7134D1549E868FDF7B2FDFDF7C2FE65
:103240004FF47A7320605843FDF7A2FC0146E8680A
:10325000FDF7E8FB0D49E5E7094D0C492869FDF745
:103260009FFDFDF7AFFE4FF47A7320605843FDF7E2
:103270008FFC01462869EBE77720B8E7CC160020E1
:10328000200C00200000C84200401C4600007A4488
:1032900030B589B05B6804468DF807400DF107042E
:1032A00018689B880294CDE90512012400250722A5
:1032B00003948DF810508DF81C20826802A995683F
:1032C0000222A84718B1034806F0F0FC204609B0D6
:1032D00030BD00BFA601010038B5074C074A4FF4C6
:1032E00000450021E0FB054100232046FDF7B0FE2C
:1032F000BDE8384005F058BF3F420F0040420F0084
:10330000F8B5092A5F6804460D4616460DD81346DF
:103310000A46014638460BF0B0FA08B90020F8BD5D
:10332000094806F0C3FC0120F9E70A460A230146D2
:1033300038460BF0A2FA0028F2D10A34A6F10A03AB
:1033400005F10A02E1B2E5E7BE0101004B1D0A46A4
:10335000072B23D8DFE803F0190F140A0425221ED7
:10336000014610484FF0FF3206F04CBC01466FF0AA
:1033700001020D48F8E701466FF003020B48F3E73E
:1033800001466FF002020A48EEE701466FF00402C0
:103390000848E9E7014602220748E5E701460748F1
:1033A000E2E77047D9010100040201003802010080
:1033B00071020100A0020100CE0201000003010021
:1033C00038B5134B1348144D01241C700023C370EF
:1033D0000823037105232946037002234370847078
:1033E000FFF7E0FA01460D48FFF7B0FF0C494FF434
:1033F00096734B802A46642320460C708B80FFF71F
:10340000B7FDBDE8384001460648FFF79FBF00BF43
:10341000B9090020CD160020240D0020540301001E
:10342000100D0020640301000C4B0D4A10B51A6406
:103430000C4A5A6401221A730B4A9A645860192282
:1034400018469A730BF02DF9014604460748FFF71A
:103450007DFFFFF7B5FF204610BD00BF240D002003
:103460009132000001330000D93200007A030100DC
:10347000214B2DE9F041214C214F224D02261E7097
:103480000023E370082323714FF001080523394618
:103490002046A37084F800806670FFF783FA014627
:1034A0001948FFF753FF194BAB603A46184BEB60D6
:1034B0002146304685F80080FFF710FB4FF47A7301
:1034C000B0FBF3F0134BC0F18C001B7868823A46D6
:1034D000294630462B74FFF74BFD01460E48FFF797
:1034E00035FF394630460BF077F9BDE8F04101462B
:1034F0000A48FFF72BBF00BFB9090020CD160020F6
:10350000240D0020100D002054030100A409002008
:1035100090090020B8090020640301003103010074
:10352000184B194870B503241C700023174DC37045
:1035300008230371052301262946037002234370E3
:103540008670FFF72FFA01461148FFF7FFFE114979
:10355000114B8B60114BCB60114B0E701B780B74B1
:103560002A462046FFF704FD01460E48FFF7EEFE0F
:10357000294620460BF030F9BDE8704001460A4864
:10358000FFF7E4BEB9090020CD160020240D00206D
:1035900054030100100D0020A40900207C09002024
:1035A000B8090020640301003103010008B50F4B86
:1035B0001870032819D8DFE800F0020C10140C4929
:1035C00000200BF009F9BDE8084001460948FFF763
:1035D000BDBEBDE80840FFF7F3BEBDE80840FFF7F9
:1035E00047BFBDE80840FFF79BBF08BDB9090020F1
:1035F000240D00203103010038B50E4A0E49012088
:10360000FFF76CFA0D4B0E499B884FF47A72002538
:1036100002FB03048C464FF400402946E4FB00C142
:10362000084A00236046FDF713FD05F0BDFD28465E
:1036300038BD00BF240D0020CD160020100D002045
:103640003F420F0040420F0038B50E4A0E4902209B
:10365000FFF744FA0D4B0E495B8A4FF47A7200254E
:1036600002FB03048C464FF400402946E4FB00C1F2
:10367000084A00236046FDF7EBFC05F095FD28465F
:1036800038BD00BF240D0020CD160020100D0020F5
:103690003F420F0040420F0038B50E4A0E4903204A
:1036A000FFF71CFA0D4B0E49DB681B884FF47A724A
:1036B000002502FB03048C464FF400402946E4FB3E
:1036C00000C1084A00236046FDF7C2FC05F06CFD0E
:1036D000284638BD240D0020CD160020100D0020F6
:1036E0003F420F0040420F00074B1B78022B05D0D2
:1036F000032B05D0012B05D1FFF77EBFFFF7A4BF39
:10370000FFF7CABF704700BFB909002010B5094BC9
:10371000187801280BD108490BF05EF804460146E1
:103720000648FFF713FEFFF7DFFF204610BD002419
:10373000F9E700BFB9090020240D00203103010082
:103740002DE9F0411D4C207802280E4603D00328B5
:1037500001D0012808D11A491A4B1B4AFFF700FA79
:1037600001461A48FFF7F2FD174B93F800C0237883
:10377000012B1CD1BCF1010F07D1114D0FCD3446E7
:103780000FC495E8030084E803006046BDE8F081BB
:103790000EFB07F4351944440FCC0FC594E8030021
:1037A00085E803000137FBB26345F1D3EDE7DFF8AD
:1037B000108000274FF0180EF5E700BFB909002070
:1037C000200C0020240D0020CC16002086030100D0
:1037D00030B585B00024234B0293CDE90044224943
:1037E0002346032220460BF06EF8204D28460BF0AE
:1037F00002FE034650B92A6803921D4A1A490090F6
:10380000CDE9010201220BF05EF81AE02B68039368
:10381000184B15490094CDE9014303222346204665
:103820000BF051F82846FFF7FFFD054658B1124B43
:103830000D490094CDE901430122234620460BF0B7
:1038400042F805B030BD0120FFF7B0FE0B4B0393EB
:103850000B4B05490095CDE9015303222B46284621
:10386000D1E700BF9D0301000CFA000010F8000032
:10387000B4030100CB030100DE03010001040100D9
:10388000080401002DE9F04F3B21A9B03D48FFF7A6
:103890003DFF3C4816A9FFF753FF0346002866D0BA
:1038A00003B216AC03EB430304EBC3054FF0010A6C
:1038B0004FF0000B637853450ED2334B0393334BD9
:1038C000029308210023CDE9003104223049184633
:1038D0000AF0F9FF0BF1010B94F9002094F801A014
:1038E0002378002A3DDA13F0200F149339D0A27800
:1038F000A0681592FCF728FECDE91201E068FCF7FC
:1039000023FE064620690F46FCF71EFE149B8946DF
:10391000204913F0100F80461F4B606918BF0B46FB
:103920001493FCF711FE149B0E93DDE91223CDE9ED
:103930000823159A144B0393184B0293CDE904B254
:1039400000230822CDE91001CDE900321049CDF85D
:1039500018A004221846CDE90C89CDE90A670AF0BF
:10396000B2FF1834AC42A5D129B0BDE8F08F0C4AA3
:1039700007490390CDE90102009003220AF0A3FF5A
:10398000F2E700BF10F80000840401002E040100DB
:103990000CFA0000FF0201002804010036040100B7
:1039A0007704010038B5044C044DAC4200D338BD57
:1039B00054F8043B9847F8E7C4F90000C4F9000044
:1039C00038B5054C256804EB850405B938BD54F8B5
:1039D0000439013D9847F8E7B8F900002DE9F04FA8
:1039E00091B08407009302F004030293C2F3C20370
:1039F00003F10103DDF86890039205460E46059336
:103A000040F0BA81041D30B1072909D86FF01B00BE
:103A100011B0BDE8F08F01F00706341DC6F10806AD
:103A2000009B4FF00008591E4FF0040A4FF0FF337F
:103A30000193CDF810804746C34653460DB1009A16
:103A400022600598002800F3E8809848009A824296
:103A500003D397488242C0F0E080039AA4EB050E9E
:103A600092074FEA9E0000F103810F2F00F2B18010
:103A7000002D00F0058107F140020DEB020C019AC8
:103A80000CF8200C0CF8102C049801300490E7E09E
:103A90007A285DD84B280ED8472859D829282DD800
:103AA000252852D054D820287AD02338D0F1000BC2
:103AB0004BEB000B74E04C382E2849D8DFE800F0BF
:103AC0007048484848484848484848484B4848484B
:103AD000484848484859484B4B595959704B6D48CC
:103AE0007048184B184848827F4B48484B487F0025
:103AF00000204FF0000B4FF0040A38E02A38C0B223
:103B0000012202FA00F010EA0E0F49D110F0625CB7
:103B10002FD110EA020B43D06046013C5444B4FB61
:103B2000FAF40AFB04F4002D61D0A3EB050CA444C5
:103B3000B4453FF66BAF002868D1042B47D159F844
:103B4000043B2360043404232AE0019A013A0192E1
:103B50004FF0000B24E011F8010C6C2834D111F85F
:103B6000023C00206C2B8346C5D14FF0080A534617
:103B7000D3E709F1070929F007090734F9E802AB8F
:103B800024F0070435B106982044B0423FF63EAF1A
:103B9000C4E900AB08344FF0000B4FF0080A53465D
:103BA00011F8010F002878D0BBF1000F7FF470AF3F
:103BB0002528F5D1019B013301934FF0010B4FF004
:103BC000040AECE7584694E700208346A5E7082B53
:103BD00002D06FF015001BE709F1070929F007096A
:103BE000F9E80223C4E9002308340823D8E768B9B8
:103BF000042B02D109F10409A4E7082BE9D109F14A
:103C0000070929F0070909F10809EDE7059A013AC2
:103C1000059259F8042B009210E7039A900720D5DB
:103C2000A4EB050E4FEA9E004FF0010CBEF5007F9D
:103C3000CFD20F2FCDD8F5B107F140020DEB020E18
:103C4000C0B2019A0EF8200C0EF8102CBCF1000F37
:103C50003FF41AAF60F07F000EF8200C08F1010865
:103C60000137C5F10802043406924FF6DA7E97E771
:103C70004FF0000CDAE7BCF1000F01D00136EFE79E
:103C8000029802360028EBD10098CDE90631FCF706
:103C900037FADDE906310644E2E7631BB3F5806FCE
:103CA00097D23DB9A6F10804E018B1E62CF7000060
:103CB000840D0100029A28609B082B709DF810303B
:103CC000C2B1EB7085F80280B8F1000F05D008A8EA
:103CD0000022C5F1010C97420ED1C5F101030DF18F
:103CE00020094FF0000A01930DF1300B574512D116
:103CF000601B8DE66B70E5E710F8013B190608D5EF
:103D000004EB0C0EB64503F07F033FF67FAE04F8DC
:103D1000013B0132DFE7B8F1000F03D099F9002031
:103D2000002A17DB029BD3B11AF80B2004F8012BF1
:103D30000022019B98182044B0423FF667AE99F8E4
:103D4000000004F8010B009903922046FDF722FAC7
:103D5000039A14440AF1010A09F10109C6E799F826
:103D6000002055F822300093029B45F8223000983D
:103D7000FCF7C6F9421CDCE76FF00D0048E600BF17
:103D8000014B1860704700BF98060020F0B5094E3F
:103D9000016802460A2700200B4601311C78355D78
:103DA0006D0701D41360F0BD07FB0043A3F13000A1
:103DB000F2E700BF5DFE00002DE9F84F15469A4678
:103DC000D378224A12F803B06F2B80460F460BF0CF
:103DD000030B29D024D8582B0CBF10260A26DDF857
:103DE00028903246002340463946FDF731F9092A2A
:103DF000D4B21ED83034B045E4B277F1000709F8E8
:103E0000014D01D3D14511D82B789B0605D5082E3D
:103E100015D1AB7843F00803AB704846BDE8F88F86
:103E200003F0F703702BD7E70826D8E780460F4644
:103E3000D7E7BBF1010F0CBF37345734DBE7102E47
:103E4000EBD1AB7843F01003E6E700BF5DFE000066
:103E50002DE9F04F97B08A46039016461C46002580
:103E6000307808B928464BE3731C2528049307D003
:103E7000039B514698470028C0F242830135F0E188
:103E80001822002110A805F05FFE7378252B00F0A2
:103E9000A3800023711C98469E469C4618460F46F8
:103EA00011F8012B2B2A00F0C68000F2BD80202AD9
:103EB00000F0C480232A00F0C4802BB19DF8483064
:103EC00043F040038DF84830B8F1000F05D09DF85D
:103ED000483043F020038DF84830BEF1000F05D084
:103EE0009DF8483043F010038DF84830BCF1000FC6
:103EF00005D09DF8483043F008038DF8483028B1CC
:103F00009DF8483043F004038DF848309DF8483060
:103F100003F04401442903D16FF386138DF8483030
:103F20009DF84830099743F080032A2A8DF84830DD
:103F300040F08C809DF8493043F001038DF8493002
:103F40007B1C1A782E2A9DF849200CBF01210021E4
:103F500061F341028DF849200CD15A1C09925A781C
:103F60002A2A40F083809DF8492042F004028DF80F
:103F7000492002331A786C2A00F0A48000F286806F
:103F8000682A00F08C806A2A00F0A5804C2A00F094
:103F9000AA801A4612F8013B0492782B9DF849201A
:103FA0008DF84B3000F217816D2B00F2A980692B40
:103FB00000F21181572B00F2BE80412B03D0453B0C
:103FC000022B00F208819DF84A30042262F30203BA
:103FD0008DF84A300123CAE0B21C04928DF84B30B0
:103FE0009DF84930D90740F1FD8054F8048BB8F1B1
:103FF000000F07DA9DF8482042F004028DF84820AF
:10400000C8F100085A0740F1F68054F804BBBBF130
:10401000000F80F2F5809DF849306FF341038DF871
:1040200049304FF0FF3BEBE02D2A0DD0302A7FF4D2
:1040300044AF012333E74FF0010C30E74FF0010E9E
:104040002DE74FF001082AE7012028E709A8FFF72C
:104050009DFE099BBB423FF474AF9DF8482013902E
:10406000C00F60F341028DF848206AE709A8FFF706
:104070008DFE9DF848301490C3F3400242EAD0729E
:1040800062F341038DF84830099B73E7742A26D008
:104090007A2A7FF47EAF9DF8492006210CE05A78F9
:1040A000682A9DF8492006D1012161F3C6028DF8E6
:1040B000492002336DE7022161F3C6028DF84920E1
:1040C000013366E75A786C2A9DF8492001D1042112
:1040D000EBE70321F0E79DF849200521ECE79DF887
:1040E00049200721E8E7BDF8482022F4F04222F0F9
:1040F000020242F4804242F00202ADF84820DFE7BB
:104100006E3BD9B201238B4040F282410B4238D141
:1041100013F0240F52D1DF075DD59DF84A300321FB
:1041200061F302038DF84A3002F07803A3F14000F6
:10413000434243411BE0A3F15801C9B2012000FAF8
:1041400001F111F4624F7FF43EAF40F601073942AE
:104150001DD111F4043F3ED09DF84A3060F30203B4
:1041600002F07802402A8DF84A3034D000239DF8BE
:104170004820C2F340010B4363F341028DF848200D
:104180002EE79DF84A30022161F30203E8E79DF82B
:104190004A10022002F0780260F30201402A8DF8F2
:1041A0004A1002BF9DF8481041F001018DF84810F7
:1041B000632BDBD1131E18BF0123D8E79DF84A30CB
:1041C000032161F3020312F0780F8DF84A3014BF17
:1041D00001230023CBE79DF8483043F001038DF81D
:1041E0004830C3E79DF94820002AB4BFDDF84C8071
:1041F0004FF0FF3806E79F077FF513AFDDF850B0AB
:104200009DF849100023CDE913339DF84A3003F09F
:104210000703012BC1F3C30133D1CB1E042B04D8F8
:10422000DFE803F0214646212100236801294FEAF7
:10423000E372CDE910321CD19DF94030DA17CDE997
:10424000103204349DF8483013F0030750D0049B1B
:104250000398324651460AF097FB0028C0F250817D
:104260000544049EFCE554F8043BDA17CDE910320E
:10427000E8E70229E5D11AB243F3C033CDE91023B0
:10428000DFE7022B24D1CB1E042B04D8DFE803F098
:10429000181010181800012954F8043B4FF00002C0
:1042A00014D00229CDE91032CCD19BB21093C9E7CA
:1042B000073424F00704F4E80223CDE91023C1E712
:1042C00054F8043B109300231193BBE7DBB2CDE716
:1042D000042B08D1073424F00704D4E90023083460
:1042E000CDE91023AEE7032BACD154F8043BDDE756
:1042F0009DF84B007828B4D862281DD825283FF4B3
:10430000B7AD5828ADD10DF13E030093DDE91001A2
:104310000AAB12AAFFF750FDBBF1000F814680F2F5
:104320009980B9F1000F9CD00DF13E06A6EB090370
:10433000002F50D001334EE06338152891D801A2E8
:1043400052F820F0C54300002944000063420000F9
:104350006342000063420000634200002944000001
:1043600063420000634200006342000063420000B9
:10437000B54400004F440000774400006342000051
:10438000634200009D430000634200004F44000070
:1043900063420000634200004F440000BBF1000F85
:1043A000DDF840900ADB5946484605F099FCB9F122
:1043B000000F3FF456AF09EB000677E04846FBF7E5
:1043C0009FFEF8E7109B8DF8283000270DF1290695
:1043D0000DF1280901239DF84A1011F010020692F0
:1043E00000F082800233139A059213444A0644BFB8
:1043F00014995B18B8F1000F40F38F80A8EB030805
:104400009DF848305807C3F3800B00F186805906A9
:1044100079D53FB1039B51463846984700286FDB5A
:1044200001355F4630236FE01E075CBFC3F3001306
:104430005F01DDE9102348BF2B27002BBFF663AFD8
:10444000524263EB4303CDE910232D275BE700279E
:1044500059E700279DF848100DF13E03A3EB09032F
:104460006FF386119B458DF848107FF65AAFABEB82
:104470000303139355E7109880B30DF13E060AAB82
:10448000009612AA0021FFF797FCBDF84A3003F00E
:10449000EF0343F4F04343F01003BBF1000F8146F8
:1044A000ADF84A30D5DA00283FF4DBAEA6EB0903BD
:1044B000002790E7109B07293FF6D3AEDFE801F015
:1044C0000C04060C08080C0C1D70CAE61D80C8E61A
:1044D000EA17C3E90052C4E61D60C2E6304E074643
:1044E000A6F10509052376E7080748BF01337AE7F7
:1044F000184607935146039B98470028079B04DA08
:1045000017B0BDE8F08F2023C346594600290BF1B0
:10451000FF3BEDDC45446D1AD84637B1039B51464D
:10452000384698470028EBDB01359DF84A30DA061B
:1045300001D41B0706D5039B51463020984700281D
:10454000DEDB0135069B3BB19DF84B00039B5146DA
:1045500098470028D4DB0135059F2F4406E0039BD4
:104560005146302098470028CADB01357B1B002BC1
:10457000F5DC039833464A4651460AF005FA00280E
:10458000BEDB0544A844A8EB0503002B7FF769AE0A
:10459000039B5146202098470028B1DB0135F2E704
:1045A000BF0401002DE9F047858B0446280790469B
:1045B00011D4022905F0070540F0CC8020460AF00E
:1045C000FAF978B10138A18B042811D8DFE800F09E
:1045D000C2106D85950001290CBF45F0100545F00E
:1045E0002005A58388F31188BFF36F8FBDE8F0879E
:1045F00001F0070AAA4500F0A5800027B9463E460B
:10460000A368002B00F0BC8041F00801A18388F36F
:104610001188BFF36F8FA168002900F0BA800D6880
:10462000002900F0B680D1F8048033465246204677
:10463000C047002D76D02B6829461D46F0E701F0D3
:1046400007035A1F012A1BD8002221F00701062B5D
:10465000276889B2C4E9002209D13B4603E0E28B16
:104660000132E2831B68002BF9D141F00201A183E2
:1046700020460AF0A0F900287AD041F0200176E027
:10468000042B0AD121F0070189B2A18320460AF048
:1046900092F910B141F02001A183A18B01F0070A2A
:1046A000AA454FD00027B946AAE7236921F00701A0
:1046B00041F00601062DD3F80090A1832DD1B9F168
:1046C000000F3FD041F00801A18388F31188BFF3A8
:1046D0006F8F3A492046C84729E021F00701236936
:1046E00041F0040189B2042DD3F80490A183E6D0EF
:1046F00000273E464FF0040A82E721F007012369B4
:1047000041F0050189B2052DD3F80890A183D6D0D8
:1047100000273E464FF0050A72E700273E464FF05D
:10472000060A6DE72B4687E7B9F1000FD1D1EFF309
:104730001188202383F31288BFF36F8FA38B23F09C
:104740000803A383A58BEA062ED525F01003A383C7
:1047500005F00705A669A18B002EBFF670AF0023F8
:104760002768C4E9003321F0070141F00101A1836A
:10477000A18B01F0070AAA454FF000097FF440AF72
:10478000002F9CD041F00801A18388F31188BFF36A
:104790006F8F002FC8D03D683946334652462046B9
:1047A0000AF035F92F46F4E7AB067FF51BAF25F08D
:1047B0002003A38305F0070500E700BF3BEA0000E4
:1047C0002DE9F84F81462F480F460AF0F4F90646C6
:1047D00070B92D4CDFF8B4A00546A0464FF0010B90
:1047E000544507D3B9F1000F02D04FF0010AE5B9E3
:1047F000BDE8F88F237B6BB12368DB680BB12046E3
:10480000984723681B6943B96368042219682046E6
:1048100000F0C8F801361034E2E720469847002837
:10482000F2D00BFA06F31D43F4E7A94695FAA5F476
:10483000B4FA84F40AFA04F3260108EB04146FEACC
:10484000030B25EA0305237B63B158F806301B6987
:1048500093B94644042273682046196809EA0B0993
:1048600000F0A0F8002DE1D127B14FF4A470002191
:1048700004F09AFC4D46BAE7204698470028F1D14B
:10488000E7E700BF7C0D00202CFA00004CFA000086
:10489000014B53F820007047FCFB000008B50346AD
:1048A00008462BB1044A136000F070FA002008BDDE
:1048B0006FF01500FBE700BF9C060020054A064884
:1048C00000231370054A1360054A4FF4004113603A
:1048D000FFF7E4BFD2160020B3EB0000740D0020F8
:1048E000780D002070B50B4D297841B90120FFF7F4
:1048F00067FF094C094EB44202D301232B7070BDEF
:1049000063685B791BB1236820469B689847103425
:10491000F1E700BFD21600202CFA00004CFA00008C
:1049200010B5044608480AF046F95CB1BFF35B8F46
:10493000064B53E8001F013943E80012002AF8D162
:10494000BFF35B8F10BD00BF740D0020780D0020F9
:1049500070B50A4B0A4C1B680A4E05469847A8607A
:10496000B44200D370BD63685B7923B123682946E4
:104970001B68204698471034F2E700BF9C060020D1
:104980002CFA00004CFA0000044A054B9B1AB1EBCC
:10499000D30F34BF52F8310000207047C4F9000033
:1049A0002CFA0000084BC31A10B41B1144680133E1
:1049B000237143689A7143681960436801225A71F0
:1049C00010BC0AF01AB900BF2CFA00002DE9F04F14
:1049D00085B002AFD7E90EA93D6B04460E4693465B
:1049E0009846BAF1000F33D0C7F80490CDF8009084
:1049F00010217A6B53460020FEF7F0FF0146154A5E
:104A000004F007040BF0070BE40044EA8B1402EAFD
:104A10004122144344EA055417350D4425F0070597
:104A2000ADEB050D02ADBAF1000F07D0CDF8009047
:104A30007A6B534605F11000FEF7D0FF434622463D
:104A4000314628460AF0DCF80C37BD46BDE8F08F49
:104A50005146D4E700FE0F00406820B1034BC01A56
:104A600040F3CF0070474FF0FF307047C4F90000AB
:104A70000EB403B503AB014653F8042B044801936D
:104A80000AF001F902B05DF804EB03B0704700BF13
:104A900033EC0000CA0605D48B064CBF024903491B
:104AA000FFF7E6BF704700BFFE020100FD020100F4
:104AB0002DE9F04F89B09A46149B06939DF84CB0AF
:104AC000159B0593169B179E049304460D4690462E
:104AD000BBF1000F00F09D8006F4807307930AF08D
:104AE0008DF806F00209024600283ED09249204681
:104AF000FFF7BEFF0746B9F1000F08D016F0440FCC
:104B000035D18E492A462046FFF7B2FF074406F00A
:104B1000010353B18A4B8B4953F82B208A4B204613
:104B2000002A08BF1A46FFF7A3FF06F48073002B84
:104B300049D006F00803002B63D1B8F1000F66D00E
:104B4000824942462046FFF793FF0546069B3D44B7
:104B5000002B6DD1049B002B73D1F30700F1E5808E
:104B600031462046FFF796FFD9E00746C3E7784B6A
:104B700018680028CAD0774B4FF47A791B68B5FBC8
:104B8000F3F54FF46161B5FBF0F300FB135509FB3E
:104B900005F54FF03C0CB3FBF1F201FB1231B5FB14
:104BA000F0FEB1FBFCF300FB1E550CFB131109FBDF
:104BB00005F50091B5FBF0F56749CDE901E5204623
:104BC000FFF756FFA2E706F00803EBB1634B644919
:104BD00053F82B202046FFF74BFF0546B8F1000F96
:104BE00005D05A4942462046FFF742FF0544BAF134
:104BF000000FABD05B4952462046FFF739FF054412
:104C0000A4E74FF0000AE1E706F00805E6E74546AD
:104C10009CE7BAF1010F069B06D1002B65D1049BDE
:104C2000002B7CD000250CE0002BF8D04E485DE036
:104C30004E48069B4E49224609F05CFE049B002B21
:104C400069D0DFF83081DFF83091049F3146102FB2
:104C5000204628BF1027FFF71DFF4FF0000A5545DB
:104C600046DC059B49461A782046FFF701FF4FF0C6
:104C7000010A1AF0070F03D141462046FFF7F8FE5C
:104C800057453CD9059B494613F80A202046FFF7B3
:104C9000EFFE0AF1010ABAF1100FEAD137492046B6
:104CA0004FF0000AFFF7E4FE5246059B9A5C344B36
:104CB000995C11F0970F08BF2E2232492046FFF76A
:104CC000D7FE0AF1010ABAF1100F1DD01AF0070F32
:104CD00003D141462046FFF7CBFE57455246E4D864
:104CE00041462046FFF7C4FEEBE720485D46A0E7BB
:104CF00041462046FFF7BCFE0AF1010AAFE7224910
:104D00002046FFF7B5FEC4E7059B3B440593049B93
:104D1000DB1B049399D1BBF1000F7FF41EAF20463B
:104D200009B0BDE8F04F09F0B5BF074A0549204674
:104D3000FFF79EFE14E700BFD2040100D604010075
:104D40000CFC000025040100CD040100FB0401005F
:104D5000840D0020800D0020DF04010020FC0000F5
:104D6000FF040100050501004FEC000033EC0000DA
:104D700087EC0000120501000A050100140501007E
:104D80005DFE00001605010010050100074A002124
:104D90000123904206D8064A01B901231360054B4E
:104DA0001860704740085B000121F2E740420F00A5
:104DB000800D0020840D0020014B01221A707047E5
:104DC000D3160020014B0020196070479C0D002075
:104DD000024B034801221A7009F05CBFD416002070
:104DE00050FC000010B5064B18680C46FFF750FD4C
:104DF00021460346BDE8104002480F22184700BF75
:104E00009C0D002050FC0000F8B5194D07460E46D9
:104E1000042432463946002003F0D2FBC8B10123F6
:104E20002B70144B1B782BB93046F8BD5CB92C7035
:104E30004FF0FF34002003F007FC0028F4D02B785B
:104E4000002BF3D1F0E7013C41F288300AF0CEFAB2
:104E5000F0E72B7813B1013C04D12C702B78002B98
:104E6000D7D1E1E741F288300AF0C0FAF6E700BF97
:104E7000D3160020D4160020F8B5074F0D4604467F
:104E80004618B44201D12846F8BD14F8011BBB688E
:104E900001485B689847F4E7E8F70000014B0360BE
:104EA0000020704794FC000008B5044809F055FD47
:104EB000BDE80840024809F050BD00BF630501008D
:104EC00098050100014809F02FB900BF94FC0000CB
:104ED00038B5044618B90F4B0F485B6898476168AE
:104EE000B1F5683F10D0B1F5680F0DD00B4DA94258
:104EF0000AD011F46861206807D0014608480AF01A
:104F0000DEFA00232360656038BD142204F01CFE25
:104F1000F9E700BF1C090020C60501002C5F5CA951
:104F2000C412002008B520B34368B3F5683F10D120
:104F300001220368BFF35B8F53E8001F002903D1F0
:104F400043E800200028F7D1BFF35B8F0DD100208C
:104F500008BD094A93420AD000684FF0FF324FF073
:104F6000FF3303F063FD0028F1D00448F0E7044864
:104F7000EEE76FF4E040EBE72C5F5CA9E98FFFFF01
:104F8000EA8FFFFF08B5D8B14368B3F5683F10D189
:104F900000220368BFF35B8F53E8001F012903D190
:104FA00043E800200028F7D1BFF35B8F0BD100202E
:104FB00008BD074A934208D0006803F0AFFDF6E74A
:104FC0006FF4E040F4E70348F2E70348F0E700BF7E
:104FD0002C5F5CA9E98FFFFFEA8FFFFF10B5044645
:104FE00018B91D4B1D485B6898476368B3F5683F67
:104FF0002FD0B3F5680F2CD0194A934219D12368EA
:1050000003BB18484FF0FF324FF0FF33214603F047
:10501000DFFC08B923681BB90F4B13485B6898473E
:1050200020681422002104F08FFD4FF46863636050
:1050300008E0B3F5683F0DD83A2B03D040F6BA62CA
:105040009342DED120680AF072FA636843F03A03B3
:10505000636010BD054AF3E71C090020C605010086
:105060002C5F5CA9C4120020EC0501003A00003A54
:1050700008B506490648402314220AF011FABDE893
:1050800008400449044809F0C1B800BFC40D00201D
:10509000C41200209CFC0000B0FC000070B5064665
:1050A00086B00D46002938D08B6805934B68049371
:1050B0000B6803930024244B2449029301222346C6
:1050C0002046CDE9004409F04BFE6B6905932B693E
:1050D0000493EB6803931E4B1C490094CDE90143F4
:1050E00001222346204609F03BFEEB690393194B4E
:1050F00016490094CDE9014301222346204609F0D8
:105100002FFEAB690393144B10490094CDE9014382
:1051100001222346204609F023FE012E0DD1EFF394
:105120000583103B03930D4B02930023CDE900331D
:1051300006493246184609F013FE2946304606B0A5
:10514000BDE8704003F0A0BA1906010004FA00009F
:10515000480601007706010086060100B40601003A
:1051600030BFFFF7FDBF00BF074A936893F90E10E9
:10517000002907DB526993421FBF044A536843F07A
:1051800080535360704700BF8C14002000ED00E096
:10519000F0B585B00024434B0293CDE9004423468B
:1051A00007460E4601224049204609F0F4FD3F4BD8
:1051B0009B6ADB0465D53E4B3B490094CDE9014336
:1051C00020462346012209F0E6FD1720374B9B6A53
:1051D0001D050AD5374B029300231846CDE900334D
:1051E0003149012209F0D7FD1820304DAB6A9C05EA
:1051F0001FD50024304B0293012223462046CDE9DF
:105200000044294909F0C7FDAB6BAA6A10040FD509
:1052100003932A4B24490094CDE9014301222346FC
:10522000204609F0B8FD1FB1AB6A23F40043AB621E
:1052300019201E4B9B6A59050AD5214B0293002366
:105240001846CDE900331849012209F0A4FD1A20BF
:10525000164A936A13F4807315D01A4B02930023F5
:105260001846CDE900331049012209F094FD1B20B6
:105270000E4A936A43F47F4393620023337005B070
:10528000F0BD1620A2E7926A9204F1D50E4A0649B3
:105290000093CDE901321846012209F07CFD1C2063
:1052A000E6E700BFC706010004FA000000ED00E0D9
:1052B000DD060100EE060100010701001A070100EA
:1052C0002F0701004A070100620701001FB50024F3
:1052D000374B029301222346CDE90044354920464D
:1052E00009F059FD344B9B6A9A015ED5334B314925
:1052F0000094CDE9014320462346012209F04BFDED
:105300001E202D4B9B6ADB010AD52D4B02930023F7
:105310001846CDE900332749012209F03CFD1F2042
:10532000254B9B6A1C030AD5264B02930023184683
:10533000CDE900331F49012209F02DFD21201E4B2C
:105340009B6A59030AD5204B029300231846CDE9E6
:1053500000331849012209F01EFD2220164B9B6ADA
:105360009A030AD5194B029300231846CDE900335E
:105370001049012209F00FFD23200F4B9B6ADB032C
:105380000AD5134B029300231846CDE9003309498F
:10539000012209F000FD2420074A936A6FEA0343C3
:1053A0006FEA1343936204B010BD1D20A9E700BF4C
:1053B0009107010004FA000000ED00E0A9070100D8
:1053C000BC070100D6070100F4070100190801001D
:1053D000330801002DE9F04385B000244D4B0293C2
:1053E000CDE9004423468046894616464A490122B3
:1053F000204609F0D0FC494B9B6ADF0640D5484B5C
:105400000094CDE90143204623464349012209F097
:10541000C2FC1124414B9B6A1D070AD5414B0293E4
:105420000023CDE900333C490122184609F0B3FCC2
:1054300012243A4DAB6A980724D500243A4B3649DA
:105440000293CDE9004423460122204609F0A3FC43
:105450006F6BAB6A190659D5344B2F490397CDE9C9
:105460000143009423460122204609F094FCB9F13F
:10547000000F03D0AB6A23F08003AB62132403E078
:105480001024C7E76FF01507244B9B6ADA070AD58B
:10549000274B02930023CDE900331F490122184610
:1054A00009F079FC14241D4B9B6A9B060AD5214BFD
:1054B00002930023CDE9003317490122184609F071
:1054C0006AFC1524154B9A6AD50602D49A6A90078D
:1054D0000AD55B68190507D54146384600F096FAAB
:1054E00010B180F3098802240C4B9A6A920642BFDD
:1054F0005A6A22F400525A629A6A42F0FF029A6291
:1055000020460023337005B0BDE8F0836FF0150727
:10551000B4E700BF5E08010004FA000000ED00E0FF
:1055200074080100EE060100A7080100BF08010091
:10553000D5080100620701002DE9F041754B5F6855
:1055400090B00446C7F30806002383F31188BFF325
:105550006F8F02F07F40B0F17F4F0CD102F00C0052
:10556000082819D16C4A6D490093CDE901321846DB
:10557000012209F010FC00252C464FF00008F31E14
:105580008DF81F80092B00F2AC80DFE803F00BA040
:10559000A49DAAAAAAAAAAA8120746BF0C461D46FD
:1055A0000125EAE75E4B5D495A4FCDF80080CDE911
:1055B000018300230122184609F0EDFB8DF81F80BE
:1055C000FE6A16F0020605D0564BCDF80080CDE9F4
:1055D000018306E0FB6A002B0BDA534B0096CDE902
:1055E000016300234D490122184609F0D4FB002233
:1055F0003CE0FB6A5B00FAD54C4B48490096CDE98C
:10560000016301223346304609F0C5FB7B69A2697C
:1056100043F480737B61BFF34F8FBFF36F8F7B6960
:1056200032F8022C23F480737B61BFF34F8FBFF3FA
:105630006F8F4DF602739A420BD0BB6ADBB2002B20
:1056400034D00DF11F0201212046FFF7C3FE0246B0
:105650000CE023680393364B30490096CDE9016393
:1056600001223346304609F096FB22689DF81F3030
:10567000CBB908AE04F1200720686168334603C344
:105680000834BC421E46F7D10F9B002D3DD0C3F31A
:10569000080121B96FEA53236FEA43230F9308A946
:1056A0001046FFF7FBFC10B0BDE8F081BB6A13F4B5
:1056B0007F4F05D00DF11F010120FFF769FDC6E7FF
:1056C000BB6AB3F5803F92D3FFF700FEBFE70DF151
:1056D0001F020021B8E70DF11F010020EDE7154B77
:1056E00073E7154A154B0D4917F4F87F18BF134699
:1056F000103ECDE90336124B02930023CDE900336F
:105700000122184609F047FB71E723F4FF7323F0E9
:105710000103C3E700ED00E02209010004FA0000E4
:105720004D09010064090100850901009309010088
:10573000B2090100CE09010009090100F4080100C5
:10574000F2090100024A536943F0100353617047A4
:1057500000ED00E0EFF30880EFF3098101B5724638
:10576000FFF7EAFE01BD00BF002080F31488BFF3FD
:105770006F8F01F039FD00200D490860BFF34F8F96
:105780000C4880F3088800F02BF8202080F3118863
:1057900009484FF40461401880F30988EFF314803E
:1057A0000221084380F31488BFF36F8F00F0F6F8EE
:1057B00094ED00E0C0440020001B00200749D1F810
:1057C00090200023C2F307221846934200DB704763
:1057D000C1F89830C1F8A0000133F6E700ED00E011
:1057E00008B572B6002383F31388FFF7E7FF144B65
:1057F0004FF0FF32C3F88020C3F88420C3F888201C
:10580000C3F88C20C3F89020C3F89420C3F89820E4
:10581000C3F89C20C3F88021C3F88421C3F88821F1
:10582000C3F88C21C3F89021C3F89421C3F89821C0
:10583000C3F89C2162B6BFF34F8FBFF36F8F08BDD3
:1058400000E100E0084B9B6883420BD1EFF3058336
:1058500043B1064B5A6842F080525A605A6A22F4A9
:1058600000425A6209F023BF8C14002000ED00E0D2
:10587000094A93686FF00A019967084958674B68AD
:1058800043F080534B60002383F31188BFF36F8F85
:105890009368986F704700BF8C14002000ED00E003
:1058A00010B50446EFF31183202383F31288BFF36E
:1058B0006F8F094B58699860084B4FF000625A602F
:1058C0000022436F426783F31188BFF36F8F00F0AC
:1058D00001F9204610BD00BF8C14002000ED00E04F
:1058E0000B498A684FF030001044EFF3098C80E8D0
:1058F000F01F74467046FFF7D3FFA64604498A6836
:1059000002F1300090E8F01F8CF309887047000026
:105910008C1400201EF0040F0CBFEFF30880EFF38F
:105920000980816911F8021C0229FFD001B509F034
:1059300027FA01BD40B2002807DB044A41090123D0
:1059400000F01F00834042F82130704700E100E082
:10595000054B420900F01F0053F82220012303FAEF
:1059600000F01040704700BF00E100E040B20028A6
:10597000A8BF00F1604001F10101B8BF064B4FEA3A
:105980004111ACBF00F5614000F00F00C9B2B4BFD7
:10599000195480F80013704714ED00E00B4A08B565
:1059A0000B4B22F07F029A60BFF34F8FBFF36F8FD4
:1059B000D3F8882022F47002C3F8882002F042FF56
:1059C00003F09CFC00F05CF802F080FF0000000097
:1059D00000ED00E042F8203C009B42F81C3C0A49E4
:1059E000019B42F8183C029B42F8143C21F0010153
:1059F0004FF0807342F8043C42F8081C0023203A20
:105A000002654367704700BF75E90000094A034615
:105A1000906870B113F1160F406E05D0A0F14002EE
:105A20009A4205D8834203D2814228BF00207047A2
:105A3000002070478C14002008B50B4B0E4615460D
:105A4000986000F047F82C4686F309884FF0000074
:105A5000064B984720464FF000014FF000024FF0F0
:105A60000003034C204700BF8C140020BFED000052
:105A700075E90000014B10221A61704700ED00E04B
:105A8000044800232021C2180133302B82F8001370
:105A9000F9D1704700E100E008B5EFF30583064A4D
:105AA000103B02EBC30152F8330049688847BDE858
:105AB0000840FFF759BB00BF38F80000024B034A0B
:105AC0000348012100F096B80000042000000020E7
:105AD000C0FC0000426E054B403A1A60044A402167
